{
  "contractName": "FileStorage",
  "abi": [
    {
      "anonymous": false,
      "inputs": [
        {
          "indexed": true,
          "internalType": "string",
          "name": "fileName",
          "type": "string"
        },
        {
          "indexed": true,
          "internalType": "address",
          "name": "deletedBy",
          "type": "address"
        },
        {
          "indexed": false,
          "internalType": "uint256",
          "name": "timestamp",
          "type": "uint256"
        }
      ],
      "name": "FileDeleted",
      "type": "event"
    },
    {
      "anonymous": false,
      "inputs": [
        {
          "indexed": true,
          "internalType": "string",
          "name": "fileName",
          "type": "string"
        },
        {
          "indexed": true,
          "internalType": "string",
          "name": "fileHash",
          "type": "string"
        },
        {
          "indexed": true,
          "internalType": "address",
          "name": "modifiedBy",
          "type": "address"
        },
        {
          "indexed": false,
          "internalType": "uint256",
          "name": "timestamp",
          "type": "uint256"
        }
      ],
      "name": "FileModified",
      "type": "event"
    },
    {
      "constant": false,
      "inputs": [
        {
          "internalType": "string",
          "name": "_fileName",
          "type": "string"
        },
        {
          "internalType": "string",
          "name": "_fileHash",
          "type": "string"
        }
      ],
      "name": "storeFile",
      "outputs": [],
      "payable": false,
      "stateMutability": "nonpayable",
      "type": "function"
    },
    {
      "constant": false,
      "inputs": [
        {
          "internalType": "string",
          "name": "_fileName",
          "type": "string"
        },
        {
          "internalType": "string",
          "name": "_fileHash",
          "type": "string"
        }
      ],
      "name": "addFileVersion",
      "outputs": [],
      "payable": false,
      "stateMutability": "nonpayable",
      "type": "function"
    },
    {
      "constant": false,
      "inputs": [
        {
          "internalType": "string",
          "name": "_fileName",
          "type": "string"
        }
      ],
      "name": "deleteFile",
      "outputs": [],
      "payable": false,
      "stateMutability": "nonpayable",
      "type": "function"
    },
    {
      "constant": true,
      "inputs": [
        {
          "internalType": "string",
          "name": "_fileName",
          "type": "string"
        },
        {
          "internalType": "uint256",
          "name": "index",
          "type": "uint256"
        }
      ],
      "name": "getFile",
      "outputs": [
        {
          "internalType": "string",
          "name": "hash",
          "type": "string"
        },
        {
          "internalType": "address",
          "name": "modifiedBy",
          "type": "address"
        },
        {
          "internalType": "uint256",
          "name": "timestamp",
          "type": "uint256"
        },
        {
          "internalType": "bool",
          "name": "exists",
          "type": "bool"
        }
      ],
      "payable": false,
      "stateMutability": "view",
      "type": "function"
    },
    {
      "constant": true,
      "inputs": [
        {
          "internalType": "string",
          "name": "_fileName",
          "type": "string"
        }
      ],
      "name": "getFileCount",
      "outputs": [
        {
          "internalType": "uint256",
          "name": "",
          "type": "uint256"
        }
      ],
      "payable": false,
      "stateMutability": "view",
      "type": "function"
    }
  ],
  "bytecode": "0x608060405234801561001057600080fd5b5061192e806100206000396000f3fe608060405234801561001057600080fd5b50600436106100575760003560e01c806320de10701461005c5780636cf0d392146101ae5780639234deca14610331578063a991005414610483578063e5ca43c71461053e575b600080fd5b6101ac6004803603604081101561007257600080fd5b810190808035906020019064010000000081111561008f57600080fd5b8201836020820111156100a157600080fd5b803590602001918460018302840111640100000000831117156100c357600080fd5b91908080601f016020809104026020016040519081016040528093929190818152602001838380828437600081840152601f19601f8201169050808301925050505050505091929192908035906020019064010000000081111561012657600080fd5b82018360208201111561013857600080fd5b8035906020019184600183028401116401000000008311171561015a57600080fd5b91908080601f016020809104026020016040519081016040528093929190818152602001838380828437600081840152601f19601f82011690508083019250505050505050919291929050505061060d565b005b610271600480360360408110156101c457600080fd5b81019080803590602001906401000000008111156101e157600080fd5b8201836020820111156101f357600080fd5b8035906020019184600183028401116401000000008311171561021557600080fd5b91908080601f016020809104026020016040519081016040528093929190818152602001838380828437600081840152601f19601f82011690508083019250505050505050919291929080359060200190929190505050610b4b565b60405180806020018573ffffffffffffffffffffffffffffffffffffffff1673ffffffffffffffffffffffffffffffffffffffff16815260200184815260200183151515158152602001828103825286818151815260200191508051906020019080838360005b838110156102f35780820151818401526020810190506102d8565b50505050905090810190601f1680156103205780820380516001836020036101000a031916815260200191505b509550505050505060405180910390f35b6104816004803603604081101561034757600080fd5b810190808035906020019064010000000081111561036457600080fd5b82018360208201111561037657600080fd5b8035906020019184600183028401116401000000008311171561039857600080fd5b91908080601f016020809104026020016040519081016040528093929190818152602001838380828437600081840152601f19601f820116905080830192505050505050509192919290803590602001906401000000008111156103fb57600080fd5b82018360208201111561040d57600080fd5b8035906020019184600183028401116401000000008311171561042f57600080fd5b91908080601f016020809104026020016040519081016040528093929190818152602001838380828437600081840152601f19601f820116905080830192505050505050509192919290505050610e88565b005b61053c6004803603602081101561049957600080fd5b81019080803590602001906401000000008111156104b657600080fd5b8201836020820111156104c857600080fd5b803590602001918460018302840111640100000000831117156104ea57600080fd5b91908080601f016020809104026020016040519081016040528093929190818152602001838380828437600081840152601f19601f8201169050808301925050505050505091929192905050506113c6565b005b6105f76004803603602081101561055457600080fd5b810190808035906020019064010000000081111561057157600080fd5b82018360208201111561058357600080fd5b803590602001918460018302840111640100000000831117156105a557600080fd5b91908080601f016020809104026020016040519081016040528093929190818152602001838380828437600081840152601f19601f8201169050808301925050505050505091929192905050506116fe565b6040518082815260200191505060405180910390f35b60008060003373ffffffffffffffffffffffffffffffffffffffff1673ffffffffffffffffffffffffffffffffffffffff168152602001908152602001600020836040518082805190602001908083835b60208310610681578051825260208201915060208101905060208303925061065e565b6001836020036101000a038019825116818451168082178552505050505050905001915050908152602001604051809103902080549050148061083b57506000803373ffffffffffffffffffffffffffffffffffffffff1673ffffffffffffffffffffffffffffffffffffffff168152602001908152602001600020826040518082805190602001908083835b60208310610731578051825260208201915060208101905060208303925061070e565b6001836020036101000a038019825116818451168082178552505050505050905001915050908152602001604051809103902060016000803373ffffffffffffffffffffffffffffffffffffffff1673ffffffffffffffffffffffffffffffffffffffff168152602001908152602001600020846040518082805190602001908083835b602083106107d857805182526020820191506020810190506020830392506107b5565b6001836020036101000a038019825116818451168082178552505050505050905001915050908152602001604051809103902080549050038154811061081a57fe5b906000526020600020906004020160030160009054906101000a900460ff16155b610890576040517f08c379a00000000000000000000000000000000000000000000000000000000081526004018080602001828103825260218152602001806118966021913960400191505060405180910390fd5b6108986117b0565b60405180608001604052808381526020013373ffffffffffffffffffffffffffffffffffffffff1681526020014281526020016001151581525090506000803373ffffffffffffffffffffffffffffffffffffffff1673ffffffffffffffffffffffffffffffffffffffff168152602001908152602001600020836040518082805190602001908083835b602083106109465780518252602082019150602081019050602083039250610923565b6001836020036101000a0380198251168184511680821785525050505050509050019150509081526020016040518091039020819080600181540180825580915050906001820390600052602060002090600402016000909192909190915060008201518160000190805190602001906109c19291906117f0565b5060208201518160010160006101000a81548173ffffffffffffffffffffffffffffffffffffffff021916908373ffffffffffffffffffffffffffffffffffffffff1602179055506040820151816002015560608201518160030160006101000a81548160ff0219169083151502179055505050503373ffffffffffffffffffffffffffffffffffffffff16826040518082805190602001908083835b60208310610a815780518252602082019150602081019050602083039250610a5e565b6001836020036101000a0380198251168184511680821785525050505050509050019150506040518091039020846040518082805190602001908083835b60208310610ae25780518252602082019150602081019050602083039250610abf565b6001836020036101000a03801982511681845116808217855250505050505090500191505060405180910390207f966cb8ccf5e48d88bcf5f5407f156534b78cf1af399070faca30add25cbbad7f426040518082815260200191505060405180910390a4505050565b606060008060008060003373ffffffffffffffffffffffffffffffffffffffff1673ffffffffffffffffffffffffffffffffffffffff168152602001908152602001600020866040518082805190602001908083835b60208310610bc45780518252602082019150602081019050602083039250610ba1565b6001836020036101000a0380198251168184511680821785525050505050509050019150509081526020016040518091039020805490508510610c6f576040517f08c379a00000000000000000000000000000000000000000000000000000000081526004018080602001828103825260138152602001807f496e646578206f7574206f6620626f756e64730000000000000000000000000081525060200191505060405180910390fd5b610c776117b0565b6000803373ffffffffffffffffffffffffffffffffffffffff1673ffffffffffffffffffffffffffffffffffffffff168152602001908152602001600020876040518082805190602001908083835b60208310610ce95780518252602082019150602081019050602083039250610cc6565b6001836020036101000a03801982511681845116808217855250505050505090500191505090815260200160405180910390208681548110610d2757fe5b9060005260206000209060040201604051806080016040529081600082018054600181600116156101000203166002900480601f016020809104026020016040519081016040528092919081815260200182805460018160011615610100020316600290048015610dd95780601f10610dae57610100808354040283529160200191610dd9565b820191906000526020600020905b815481529060010190602001808311610dbc57829003601f168201915b505050505081526020016001820160009054906101000a900473ffffffffffffffffffffffffffffffffffffffff1673ffffffffffffffffffffffffffffffffffffffff1673ffffffffffffffffffffffffffffffffffffffff168152602001600282015481526020016003820160009054906101000a900460ff1615151515815250509050806000015181602001518260400151836060015183935094509450945094505092959194509250565b60008060003373ffffffffffffffffffffffffffffffffffffffff1673ffffffffffffffffffffffffffffffffffffffff168152602001908152602001600020836040518082805190602001908083835b60208310610efc5780518252602082019150602081019050602083039250610ed9565b6001836020036101000a0380198251168184511680821785525050505050509050019150509081526020016040518091039020805490501180156110b657506000803373ffffffffffffffffffffffffffffffffffffffff1673ffffffffffffffffffffffffffffffffffffffff168152602001908152602001600020826040518082805190602001908083835b60208310610fad5780518252602082019150602081019050602083039250610f8a565b6001836020036101000a038019825116818451168082178552505050505050905001915050908152602001604051809103902060016000803373ffffffffffffffffffffffffffffffffffffffff1673ffffffffffffffffffffffffffffffffffffffff168152602001908152602001600020846040518082805190602001908083835b602083106110545780518252602082019150602081019050602083039250611031565b6001836020036101000a038019825116818451168082178552505050505050905001915050908152602001604051809103902080549050038154811061109657fe5b906000526020600020906004020160030160009054906101000a900460ff165b61110b576040517f08c379a00000000000000000000000000000000000000000000000000000000081526004018080602001828103825260228152602001806118d86022913960400191505060405180910390fd5b6111136117b0565b60405180608001604052808381526020013373ffffffffffffffffffffffffffffffffffffffff1681526020014281526020016001151581525090506000803373ffffffffffffffffffffffffffffffffffffffff1673ffffffffffffffffffffffffffffffffffffffff168152602001908152602001600020836040518082805190602001908083835b602083106111c1578051825260208201915060208101905060208303925061119e565b6001836020036101000a03801982511681845116808217855250505050505090500191505090815260200160405180910390208190806001815401808255809150509060018203906000526020600020906004020160009091929091909150600082015181600001908051906020019061123c9291906117f0565b5060208201518160010160006101000a81548173ffffffffffffffffffffffffffffffffffffffff021916908373ffffffffffffffffffffffffffffffffffffffff1602179055506040820151816002015560608201518160030160006101000a81548160ff0219169083151502179055505050503373ffffffffffffffffffffffffffffffffffffffff16826040518082805190602001908083835b602083106112fc57805182526020820191506020810190506020830392506112d9565b6001836020036101000a0380198251168184511680821785525050505050509050019150506040518091039020846040518082805190602001908083835b6020831061135d578051825260208201915060208101905060208303925061133a565b6001836020036101000a03801982511681845116808217855250505050505090500191505060405180910390207f966cb8ccf5e48d88bcf5f5407f156534b78cf1af399070faca30add25cbbad7f426040518082815260200191505060405180910390a4505050565b60008060003373ffffffffffffffffffffffffffffffffffffffff1673ffffffffffffffffffffffffffffffffffffffff168152602001908152602001600020826040518082805190602001908083835b6020831061143a5780518252602082019150602081019050602083039250611417565b6001836020036101000a038019825116818451168082178552505050505050905001915050908152602001604051809103902080549050116114c7576040517f08c379a00000000000000000000000000000000000000000000000000000000081526004018080602001828103825260218152602001806118b76021913960400191505060405180910390fd5b60008060003373ffffffffffffffffffffffffffffffffffffffff1673ffffffffffffffffffffffffffffffffffffffff168152602001908152602001600020826040518082805190602001908083835b6020831061153b5780518252602082019150602081019050602083039250611518565b6001836020036101000a038019825116818451168082178552505050505050905001915050908152602001604051809103902060016000803373ffffffffffffffffffffffffffffffffffffffff1673ffffffffffffffffffffffffffffffffffffffff168152602001908152602001600020846040518082805190602001908083835b602083106115e257805182526020820191506020810190506020830392506115bf565b6001836020036101000a038019825116818451168082178552505050505050905001915050908152602001604051809103902080549050038154811061162457fe5b906000526020600020906004020160030160006101000a81548160ff0219169083151502179055503373ffffffffffffffffffffffffffffffffffffffff16816040518082805190602001908083835b602083106116975780518252602082019150602081019050602083039250611674565b6001836020036101000a03801982511681845116808217855250505050505090500191505060405180910390207f95e972c3a67dbad867ecd97e563afae3eb200d1db34d1dd6668e75af182eb68a426040518082815260200191505060405180910390a350565b60008060003373ffffffffffffffffffffffffffffffffffffffff1673ffffffffffffffffffffffffffffffffffffffff168152602001908152602001600020826040518082805190602001908083835b60208310611772578051825260208201915060208101905060208303925061174f565b6001836020036101000a0380198251168184511680821785525050505050509050019150509081526020016040518091039020805490509050919050565b604051806080016040528060608152602001600073ffffffffffffffffffffffffffffffffffffffff168152602001600081526020016000151581525090565b828054600181600116156101000203166002900490600052602060002090601f016020900481019282601f1061183157805160ff191683800117855561185f565b8280016001018555821561185f579182015b8281111561185e578251825591602001919060010190611843565b5b50905061186c9190611870565b5090565b61189291905b8082111561188e576000816000905550600101611876565b5090565b9056fe46696c6520616c72656164792065786973747320666f722074686973207573657246696c6520646f6573206e6f7420657869737420666f72207468697320757365724e6f206578697374696e672066696c6520746f206164642076657273696f6e20746fa265627a7a723158202451ab3fd7ef179b166ee36e4bb8aa1007fb2c6cac4c1bf29a68e5f4eef06fcb64736f6c63430005100032",
  "source": "// SPDX-License-Identifier: MIT \r\npragma solidity ^0.5.16;\r\n\r\ncontract FileStorage {\r\n    struct File {\r\n        string hash;\r\n        address modifiedBy;\r\n        uint256 timestamp;\r\n        bool exists;\r\n    }\r\n\r\n    mapping(address => mapping(string => File[])) files;\r\n\r\n    event FileModified(string indexed fileName, string indexed fileHash, address indexed modifiedBy, uint256 timestamp);\r\n    event FileDeleted(string indexed fileName, address indexed deletedBy, uint256 timestamp);\r\n\r\n    function storeFile(string memory _fileName, string memory _fileHash) public {\r\n        // Check if the file already exists for the user\r\n        require(files[msg.sender][_fileName].length == 0 || !files[msg.sender][_fileName][files[msg.sender][_fileName].length - 1].exists, \"File already exists for this user\");\r\n\r\n        File memory newFile = File({\r\n            hash: _fileHash,\r\n            modifiedBy: msg.sender,\r\n            timestamp: block.timestamp,\r\n            exists: true\r\n        });\r\n        files[msg.sender][_fileName].push(newFile);\r\n        emit FileModified(_fileName, _fileHash, msg.sender, block.timestamp);\r\n    }\r\n\r\n    function addFileVersion(string memory _fileName, string memory _fileHash) public {\r\n        require(files[msg.sender][_fileName].length > 0 && files[msg.sender][_fileName][files[msg.sender][_fileName].length - 1].exists, \"No existing file to add version to\");\r\n\r\n        File memory newFileVersion = File({\r\n            hash: _fileHash,\r\n            modifiedBy: msg.sender,\r\n            timestamp: block.timestamp,\r\n            exists: true\r\n        });\r\n        files[msg.sender][_fileName].push(newFileVersion);\r\n        emit FileModified(_fileName, _fileHash, msg.sender, block.timestamp);\r\n    }\r\n\r\n    function deleteFile(string memory _fileName) public {\r\n        require(files[msg.sender][_fileName].length > 0, \"File does not exist for this user\");\r\n\r\n        // Mark the latest file as deleted\r\n        files[msg.sender][_fileName][files[msg.sender][_fileName].length - 1].exists = false;\r\n        emit FileDeleted(_fileName, msg.sender, block.timestamp);\r\n    }\r\n\r\n    function getFile(string memory _fileName, uint256 index) public view returns (string memory hash, address modifiedBy, uint256 timestamp, bool exists) {\r\n        require(index < files[msg.sender][_fileName].length, \"Index out of bounds\");\r\n        File memory file = files[msg.sender][_fileName][index];\r\n        return (file.hash, file.modifiedBy, file.timestamp, file.exists);\r\n    }\r\n\r\n    function getFileCount(string memory _fileName) public view returns (uint256) {\r\n        return files[msg.sender][_fileName].length;\r\n    }\r\n}\r\n",
  "sourcePath": "C:\\Users\\Ahmed\\Desktop\\McHack\\blockchain\\contracts\\FileStorage.sol",
  "compiler": {
    "name": "solc",
    "version": "0.5.16+commit.9c3226ce.Emscripten.clang"
  },
  "schemaVersion": "3.4.16",
  "updatedAt": "2024-04-27T08:16:18.624Z",
  "networkType": "ethereum",
  "devdoc": {
    "methods": {}
  },
  "userdoc": {
    "methods": {}
  }
}